{
  "_format": "hh-sol-artifact-1",
  "contractName": "FractionalDAO",
  "sourceName": "contracts/FractionalDAO.sol",
  "abi": [
    {
      "inputs": [
        {
          "internalType": "address",
          "name": "_token",
          "type": "address"
        }
      ],
      "stateMutability": "nonpayable",
      "type": "constructor"
    },
    {
      "inputs": [
        {
          "internalType": "string",
          "name": "_description",
          "type": "string"
        },
        {
          "internalType": "uint256",
          "name": "durationSeconds",
          "type": "uint256"
        }
      ],
      "name": "createProposal",
      "outputs": [],
      "stateMutability": "nonpayable",
      "type": "function"
    },
    {
      "inputs": [
        {
          "internalType": "uint256",
          "name": "id",
          "type": "uint256"
        }
      ],
      "name": "getProposal",
      "outputs": [
        {
          "components": [
            {
              "internalType": "string",
              "name": "description",
              "type": "string"
            },
            {
              "internalType": "uint256",
              "name": "voteCount",
              "type": "uint256"
            },
            {
              "internalType": "uint256",
              "name": "deadline",
              "type": "uint256"
            },
            {
              "internalType": "bool",
              "name": "executed",
              "type": "bool"
            }
          ],
          "internalType": "struct FractionalDAO.Proposal",
          "name": "",
          "type": "tuple"
        }
      ],
      "stateMutability": "view",
      "type": "function"
    },
    {
      "inputs": [],
      "name": "governanceToken",
      "outputs": [
        {
          "internalType": "contract IERC20",
          "name": "",
          "type": "address"
        }
      ],
      "stateMutability": "view",
      "type": "function"
    },
    {
      "inputs": [
        {
          "internalType": "uint256",
          "name": "",
          "type": "uint256"
        },
        {
          "internalType": "address",
          "name": "",
          "type": "address"
        }
      ],
      "name": "hasVoted",
      "outputs": [
        {
          "internalType": "bool",
          "name": "",
          "type": "bool"
        }
      ],
      "stateMutability": "view",
      "type": "function"
    },
    {
      "inputs": [
        {
          "internalType": "uint256",
          "name": "",
          "type": "uint256"
        }
      ],
      "name": "proposals",
      "outputs": [
        {
          "internalType": "string",
          "name": "description",
          "type": "string"
        },
        {
          "internalType": "uint256",
          "name": "voteCount",
          "type": "uint256"
        },
        {
          "internalType": "uint256",
          "name": "deadline",
          "type": "uint256"
        },
        {
          "internalType": "bool",
          "name": "executed",
          "type": "bool"
        }
      ],
      "stateMutability": "view",
      "type": "function"
    },
    {
      "inputs": [
        {
          "internalType": "uint256",
          "name": "proposalId",
          "type": "uint256"
        }
      ],
      "name": "vote",
      "outputs": [],
      "stateMutability": "nonpayable",
      "type": "function"
    }
  ],
  "bytecode": "0x608060405234801561001057600080fd5b5060405161126b38038061126b833981810160405281019061003291906100db565b806000806101000a81548173ffffffffffffffffffffffffffffffffffffffff021916908373ffffffffffffffffffffffffffffffffffffffff16021790555050610108565b600080fd5b600073ffffffffffffffffffffffffffffffffffffffff82169050919050565b60006100a88261007d565b9050919050565b6100b88161009d565b81146100c357600080fd5b50565b6000815190506100d5816100af565b92915050565b6000602082840312156100f1576100f0610078565b5b60006100ff848285016100c6565b91505092915050565b611154806101176000396000f3fe608060405234801561001057600080fd5b50600436106100625760003560e01c80630121b93f14610067578063013cf08b1461008357806335facf78146100b657806343859632146100d2578063c7f758a814610102578063f96dae0a14610132575b600080fd5b610081600480360381019061007c9190610724565b610150565b005b61009d60048036038101906100989190610724565b6103e0565b6040516100ad949392919061080b565b60405180910390f35b6100d060048036038101906100cb919061098c565b6104b5565b005b6100ec60048036038101906100e79190610a46565b610560565b6040516100f99190610a86565b60405180910390f35b61011c60048036038101906101179190610724565b61058f565b6040516101299190610b6c565b60405180910390f35b61013a61068c565b6040516101479190610bed565b60405180910390f35b6001818154811061016457610163610c08565b5b90600052602060002090600402016002015442106101b7576040517f08c379a00000000000000000000000000000000000000000000000000000000081526004016101ae90610c83565b60405180910390fd5b6002600082815260200190815260200160002060003373ffffffffffffffffffffffffffffffffffffffff1673ffffffffffffffffffffffffffffffffffffffff16815260200190815260200160002060009054906101000a900460ff1615610255576040517f08c379a000000000000000000000000000000000000000000000000000000000815260040161024c90610cef565b60405180910390fd5b60008060009054906101000a900473ffffffffffffffffffffffffffffffffffffffff1673ffffffffffffffffffffffffffffffffffffffff166370a08231336040518263ffffffff1660e01b81526004016102b19190610d1e565b602060405180830381865afa1580156102ce573d6000803e3d6000fd5b505050506040513d601f19601f820116820180604052508101906102f29190610d4e565b905060008111610337576040517f08c379a000000000000000000000000000000000000000000000000000000000815260040161032e90610dc7565b60405180910390fd5b806001838154811061034c5761034b610c08565b5b9060005260206000209060040201600101600082825461036c9190610e16565b9250508190555060016002600084815260200190815260200160002060003373ffffffffffffffffffffffffffffffffffffffff1673ffffffffffffffffffffffffffffffffffffffff16815260200190815260200160002060006101000a81548160ff0219169083151502179055505050565b600181815481106103f057600080fd5b906000526020600020906004020160009150905080600001805461041390610e79565b80601f016020809104026020016040519081016040528092919081815260200182805461043f90610e79565b801561048c5780601f106104615761010080835404028352916020019161048c565b820191906000526020600020905b81548152906001019060200180831161046f57829003601f168201915b5050505050908060010154908060020154908060030160009054906101000a900460ff16905084565b600160405180608001604052808481526020016000815260200183426104db9190610e16565b81526020016000151581525090806001815401808255809150506001900390600052602060002090600402016000909190919091506000820151816000019081610525919061104c565b50602082015181600101556040820151816002015560608201518160030160006101000a81548160ff02191690831515021790555050505050565b60026020528160005260406000206020528060005260406000206000915091509054906101000a900460ff1681565b6105976106b0565b600182815481106105ab576105aa610c08565b5b90600052602060002090600402016040518060800160405290816000820180546105d490610e79565b80601f016020809104026020016040519081016040528092919081815260200182805461060090610e79565b801561064d5780601f106106225761010080835404028352916020019161064d565b820191906000526020600020905b81548152906001019060200180831161063057829003601f168201915b5050505050815260200160018201548152602001600282015481526020016003820160009054906101000a900460ff1615151515815250509050919050565b60008054906101000a900473ffffffffffffffffffffffffffffffffffffffff1681565b60405180608001604052806060815260200160008152602001600081526020016000151581525090565b6000604051905090565b600080fd5b600080fd5b6000819050919050565b610701816106ee565b811461070c57600080fd5b50565b60008135905061071e816106f8565b92915050565b60006020828403121561073a576107396106e4565b5b60006107488482850161070f565b91505092915050565b600081519050919050565b600082825260208201905092915050565b60005b8381101561078b578082015181840152602081019050610770565b60008484015250505050565b6000601f19601f8301169050919050565b60006107b382610751565b6107bd818561075c565b93506107cd81856020860161076d565b6107d681610797565b840191505092915050565b6107ea816106ee565b82525050565b60008115159050919050565b610805816107f0565b82525050565b6000608082019050818103600083015261082581876107a8565b905061083460208301866107e1565b61084160408301856107e1565b61084e60608301846107fc565b95945050505050565b600080fd5b600080fd5b7f4e487b7100000000000000000000000000000000000000000000000000000000600052604160045260246000fd5b61089982610797565b810181811067ffffffffffffffff821117156108b8576108b7610861565b5b80604052505050565b60006108cb6106da565b90506108d78282610890565b919050565b600067ffffffffffffffff8211156108f7576108f6610861565b5b61090082610797565b9050602081019050919050565b82818337600083830152505050565b600061092f61092a846108dc565b6108c1565b90508281526020810184848401111561094b5761094a61085c565b5b61095684828561090d565b509392505050565b600082601f83011261097357610972610857565b5b813561098384826020860161091c565b91505092915050565b600080604083850312156109a3576109a26106e4565b5b600083013567ffffffffffffffff8111156109c1576109c06106e9565b5b6109cd8582860161095e565b92505060206109de8582860161070f565b9150509250929050565b600073ffffffffffffffffffffffffffffffffffffffff82169050919050565b6000610a13826109e8565b9050919050565b610a2381610a08565b8114610a2e57600080fd5b50565b600081359050610a4081610a1a565b92915050565b60008060408385031215610a5d57610a5c6106e4565b5b6000610a6b8582860161070f565b9250506020610a7c85828601610a31565b9150509250929050565b6000602082019050610a9b60008301846107fc565b92915050565b600082825260208201905092915050565b6000610abd82610751565b610ac78185610aa1565b9350610ad781856020860161076d565b610ae081610797565b840191505092915050565b610af4816106ee565b82525050565b610b03816107f0565b82525050565b60006080830160008301518482036000860152610b268282610ab2565b9150506020830151610b3b6020860182610aeb565b506040830151610b4e6040860182610aeb565b506060830151610b616060860182610afa565b508091505092915050565b60006020820190508181036000830152610b868184610b09565b905092915050565b6000819050919050565b6000610bb3610bae610ba9846109e8565b610b8e565b6109e8565b9050919050565b6000610bc582610b98565b9050919050565b6000610bd782610bba565b9050919050565b610be781610bcc565b82525050565b6000602082019050610c026000830184610bde565b92915050565b7f4e487b7100000000000000000000000000000000000000000000000000000000600052603260045260246000fd5b7f566f74696e6720656e6465640000000000000000000000000000000000000000600082015250565b6000610c6d600c8361075c565b9150610c7882610c37565b602082019050919050565b60006020820190508181036000830152610c9c81610c60565b9050919050565b7f416c726561647920766f74656400000000000000000000000000000000000000600082015250565b6000610cd9600d8361075c565b9150610ce482610ca3565b602082019050919050565b60006020820190508181036000830152610d0881610ccc565b9050919050565b610d1881610a08565b82525050565b6000602082019050610d336000830184610d0f565b92915050565b600081519050610d48816106f8565b92915050565b600060208284031215610d6457610d636106e4565b5b6000610d7284828501610d39565b91505092915050565b7f4e6f20766f74696e6720706f7765720000000000000000000000000000000000600082015250565b6000610db1600f8361075c565b9150610dbc82610d7b565b602082019050919050565b60006020820190508181036000830152610de081610da4565b9050919050565b7f4e487b7100000000000000000000000000000000000000000000000000000000600052601160045260246000fd5b6000610e21826106ee565b9150610e2c836106ee565b9250828201905080821115610e4457610e43610de7565b5b92915050565b7f4e487b7100000000000000000000000000000000000000000000000000000000600052602260045260246000fd5b60006002820490506001821680610e9157607f821691505b602082108103610ea457610ea3610e4a565b5b50919050565b60008190508160005260206000209050919050565b60006020601f8301049050919050565b600082821b905092915050565b600060088302610f0c7fffffffffffffffffffffffffffffffffffffffffffffffffffffffffffffffff82610ecf565b610f168683610ecf565b95508019841693508086168417925050509392505050565b6000610f49610f44610f3f846106ee565b610b8e565b6106ee565b9050919050565b6000819050919050565b610f6383610f2e565b610f77610f6f82610f50565b848454610edc565b825550505050565b600090565b610f8c610f7f565b610f97818484610f5a565b505050565b5b81811015610fbb57610fb0600082610f84565b600181019050610f9d565b5050565b601f82111561100057610fd181610eaa565b610fda84610ebf565b81016020851015610fe9578190505b610ffd610ff585610ebf565b830182610f9c565b50505b505050565b600082821c905092915050565b600061102360001984600802611005565b1980831691505092915050565b600061103c8383611012565b9150826002028217905092915050565b61105582610751565b67ffffffffffffffff81111561106e5761106d610861565b5b6110788254610e79565b611083828285610fbf565b600060209050601f8311600181146110b657600084156110a4578287015190505b6110ae8582611030565b865550611116565b601f1984166110c486610eaa565b60005b828110156110ec578489015182556001820191506020850194506020810190506110c7565b868310156111095784890151611105601f891682611012565b8355505b6001600288020188555050505b50505050505056fea2646970667358221220acdf7eda45d87db573db7037fa548ee8cdb3569031048c5d20cadf64f9b1aeb864736f6c634300081c0033",
  "linkReferences": {},
  "deployedLinkReferences": {}
}