{
  "_format": "hh-sol-artifact-1",
  "contractName": "Fractionalizer",
  "sourceName": "contracts/Fractionalizer.sol",
  "abi": [
    {
      "anonymous": false,
      "inputs": [
        {
          "indexed": false,
          "internalType": "address",
          "name": "tokenAddress",
          "type": "address"
        },
        {
          "indexed": false,
          "internalType": "uint256",
          "name": "tokenId",
          "type": "uint256"
        },
        {
          "indexed": false,
          "internalType": "address",
          "name": "fractionalToken",
          "type": "address"
        },
        {
          "indexed": false,
          "internalType": "uint256",
          "name": "totalShares",
          "type": "uint256"
        }
      ],
      "name": "Fractionalized",
      "type": "event"
    },
    {
      "inputs": [
        {
          "internalType": "address",
          "name": "nftAddress",
          "type": "address"
        },
        {
          "internalType": "uint256",
          "name": "tokenId",
          "type": "uint256"
        },
        {
          "internalType": "uint256",
          "name": "totalShares",
          "type": "uint256"
        },
        {
          "internalType": "string",
          "name": "name",
          "type": "string"
        },
        {
          "internalType": "string",
          "name": "symbol",
          "type": "string"
        }
      ],
      "name": "fractionalize",
      "outputs": [],
      "stateMutability": "nonpayable",
      "type": "function"
    }
  ],
  "bytecode": "0x6080604052348015600f57600080fd5b50611e9c8061001f6000396000f3fe608060405234801561001057600080fd5b506004361061002b5760003560e01c8063c970be8114610030575b600080fd5b61004a6004803603810190610045919061033d565b61004c565b005b8473ffffffffffffffffffffffffffffffffffffffff166323b872dd3330876040518463ffffffff1660e01b81526004016100899392919061040e565b600060405180830381600087803b1580156100a357600080fd5b505af11580156100b7573d6000803e3d6000fd5b5050505060008282853389896040516100cf90610142565b6100de969594939291906104c4565b604051809103906000f0801580156100fa573d6000803e3d6000fd5b5090507f6cb63fc7f7638f297d35456e280cc00bab7f71052de05bf897f0762b3d6ac45c868683876040516101329493929190610533565b60405180910390a1505050505050565b6118ee8061057983390190565b6000604051905090565b600080fd5b600080fd5b600073ffffffffffffffffffffffffffffffffffffffff82169050919050565b600061018e82610163565b9050919050565b61019e81610183565b81146101a957600080fd5b50565b6000813590506101bb81610195565b92915050565b6000819050919050565b6101d4816101c1565b81146101df57600080fd5b50565b6000813590506101f1816101cb565b92915050565b600080fd5b600080fd5b6000601f19601f8301169050919050565b7f4e487b7100000000000000000000000000000000000000000000000000000000600052604160045260246000fd5b61024a82610201565b810181811067ffffffffffffffff8211171561026957610268610212565b5b80604052505050565b600061027c61014f565b90506102888282610241565b919050565b600067ffffffffffffffff8211156102a8576102a7610212565b5b6102b182610201565b9050602081019050919050565b82818337600083830152505050565b60006102e06102db8461028d565b610272565b9050828152602081018484840111156102fc576102fb6101fc565b5b6103078482856102be565b509392505050565b600082601f830112610324576103236101f7565b5b81356103348482602086016102cd565b91505092915050565b600080600080600060a0868803121561035957610358610159565b5b6000610367888289016101ac565b9550506020610378888289016101e2565b9450506040610389888289016101e2565b935050606086013567ffffffffffffffff8111156103aa576103a961015e565b5b6103b68882890161030f565b925050608086013567ffffffffffffffff8111156103d7576103d661015e565b5b6103e38882890161030f565b9150509295509295909350565b6103f981610183565b82525050565b610408816101c1565b82525050565b600060608201905061042360008301866103f0565b61043060208301856103f0565b61043d60408301846103ff565b949350505050565b600081519050919050565b600082825260208201905092915050565b60005b8381101561047f578082015181840152602081019050610464565b60008484015250505050565b600061049682610445565b6104a08185610450565b93506104b0818560208601610461565b6104b981610201565b840191505092915050565b600060c08201905081810360008301526104de818961048b565b905081810360208301526104f2818861048b565b905061050160408301876103ff565b61050e60608301866103f0565b61051b60808301856103f0565b61052860a08301846103ff565b979650505050505050565b600060808201905061054860008301876103f0565b61055560208301866103ff565b61056260408301856103f0565b61056f60608301846103ff565b9594505050505056fe608060405234801561001057600080fd5b506040516118ee3803806118ee8339818101604052810190610032919061056f565b85858160039081610043919061084b565b508060049081610053919061084b565b50505061006683856100b960201b60201c565b81600560006101000a81548173ffffffffffffffffffffffffffffffffffffffff021916908373ffffffffffffffffffffffffffffffffffffffff16021790555080600681905550505050505050610a0b565b600073ffffffffffffffffffffffffffffffffffffffff168273ffffffffffffffffffffffffffffffffffffffff160361012b5760006040517fec442f05000000000000000000000000000000000000000000000000000000008152600401610122919061092c565b60405180910390fd5b61013d6000838361014160201b60201c565b5050565b600073ffffffffffffffffffffffffffffffffffffffff168373ffffffffffffffffffffffffffffffffffffffff16036101935780600260008282546101879190610976565b92505081905550610266565b60008060008573ffffffffffffffffffffffffffffffffffffffff1673ffffffffffffffffffffffffffffffffffffffff1681526020019081526020016000205490508181101561021f578381836040517fe450d38c000000000000000000000000000000000000000000000000000000008152600401610216939291906109b9565b60405180910390fd5b8181036000808673ffffffffffffffffffffffffffffffffffffffff1673ffffffffffffffffffffffffffffffffffffffff16815260200190815260200160002081905550505b600073ffffffffffffffffffffffffffffffffffffffff168273ffffffffffffffffffffffffffffffffffffffff16036102af57806002600082825403925050819055506102fc565b806000808473ffffffffffffffffffffffffffffffffffffffff1673ffffffffffffffffffffffffffffffffffffffff168152602001908152602001600020600082825401925050819055505b8173ffffffffffffffffffffffffffffffffffffffff168373ffffffffffffffffffffffffffffffffffffffff167fddf252ad1be2c89b69c2b068fc378daa952ba7f163c4a11628f55a4df523b3ef8360405161035991906109f0565b60405180910390a3505050565b6000604051905090565b600080fd5b600080fd5b600080fd5b600080fd5b6000601f19601f8301169050919050565b7f4e487b7100000000000000000000000000000000000000000000000000000000600052604160045260246000fd5b6103cd82610384565b810181811067ffffffffffffffff821117156103ec576103eb610395565b5b80604052505050565b60006103ff610366565b905061040b82826103c4565b919050565b600067ffffffffffffffff82111561042b5761042a610395565b5b61043482610384565b9050602081019050919050565b60005b8381101561045f578082015181840152602081019050610444565b60008484015250505050565b600061047e61047984610410565b6103f5565b90508281526020810184848401111561049a5761049961037f565b5b6104a5848285610441565b509392505050565b600082601f8301126104c2576104c161037a565b5b81516104d284826020860161046b565b91505092915050565b6000819050919050565b6104ee816104db565b81146104f957600080fd5b50565b60008151905061050b816104e5565b92915050565b600073ffffffffffffffffffffffffffffffffffffffff82169050919050565b600061053c82610511565b9050919050565b61054c81610531565b811461055757600080fd5b50565b60008151905061056981610543565b92915050565b60008060008060008060c0878903121561058c5761058b610370565b5b600087015167ffffffffffffffff8111156105aa576105a9610375565b5b6105b689828a016104ad565b965050602087015167ffffffffffffffff8111156105d7576105d6610375565b5b6105e389828a016104ad565b95505060406105f489828a016104fc565b945050606061060589828a0161055a565b935050608061061689828a0161055a565b92505060a061062789828a016104fc565b9150509295509295509295565b600081519050919050565b7f4e487b7100000000000000000000000000000000000000000000000000000000600052602260045260246000fd5b6000600282049050600182168061068657607f821691505b6020821081036106995761069861063f565b5b50919050565b60008190508160005260206000209050919050565b60006020601f8301049050919050565b600082821b905092915050565b6000600883026107017fffffffffffffffffffffffffffffffffffffffffffffffffffffffffffffffff826106c4565b61070b86836106c4565b95508019841693508086168417925050509392505050565b6000819050919050565b600061074861074361073e846104db565b610723565b6104db565b9050919050565b6000819050919050565b6107628361072d565b61077661076e8261074f565b8484546106d1565b825550505050565b600090565b61078b61077e565b610796818484610759565b505050565b5b818110156107ba576107af600082610783565b60018101905061079c565b5050565b601f8211156107ff576107d08161069f565b6107d9846106b4565b810160208510156107e8578190505b6107fc6107f4856106b4565b83018261079b565b50505b505050565b600082821c905092915050565b600061082260001984600802610804565b1980831691505092915050565b600061083b8383610811565b9150826002028217905092915050565b61085482610634565b67ffffffffffffffff81111561086d5761086c610395565b5b610877825461066e565b6108828282856107be565b600060209050601f8311600181146108b557600084156108a3578287015190505b6108ad858261082f565b865550610915565b601f1984166108c38661069f565b60005b828110156108eb578489015182556001820191506020850194506020810190506108c6565b868310156109085784890151610904601f891682610811565b8355505b6001600288020188555050505b505050505050565b61092681610531565b82525050565b6000602082019050610941600083018461091d565b92915050565b7f4e487b7100000000000000000000000000000000000000000000000000000000600052601160045260246000fd5b6000610981826104db565b915061098c836104db565b92508282019050808211156109a4576109a3610947565b5b92915050565b6109b3816104db565b82525050565b60006060820190506109ce600083018661091d565b6109db60208301856109aa565b6109e860408301846109aa565b949350505050565b6000602082019050610a0560008301846109aa565b92915050565b610ed480610a1a6000396000f3fe608060405234801561001057600080fd5b50600436106100a95760003560e01c80635bf8633a116100715780635bf8633a1461016857806370a08231146101865780637e830574146101b657806395d89b41146101d4578063a9059cbb146101f2578063dd62ed3e14610222576100a9565b806306fdde03146100ae578063095ea7b3146100cc57806318160ddd146100fc57806323b872dd1461011a578063313ce5671461014a575b600080fd5b6100b6610252565b6040516100c39190610b28565b60405180910390f35b6100e660048036038101906100e19190610be3565b6102e4565b6040516100f39190610c3e565b60405180910390f35b610104610307565b6040516101119190610c68565b60405180910390f35b610134600480360381019061012f9190610c83565b610311565b6040516101419190610c3e565b60405180910390f35b610152610340565b60405161015f9190610cf2565b60405180910390f35b610170610349565b60405161017d9190610d1c565b60405180910390f35b6101a0600480360381019061019b9190610d37565b61036f565b6040516101ad9190610c68565b60405180910390f35b6101be6103b7565b6040516101cb9190610c68565b60405180910390f35b6101dc6103bd565b6040516101e99190610b28565b60405180910390f35b61020c60048036038101906102079190610be3565b61044f565b6040516102199190610c3e565b60405180910390f35b61023c60048036038101906102379190610d64565b610472565b6040516102499190610c68565b60405180910390f35b60606003805461026190610dd3565b80601f016020809104026020016040519081016040528092919081815260200182805461028d90610dd3565b80156102da5780601f106102af576101008083540402835291602001916102da565b820191906000526020600020905b8154815290600101906020018083116102bd57829003601f168201915b5050505050905090565b6000806102ef6104f9565b90506102fc818585610501565b600191505092915050565b6000600254905090565b60008061031c6104f9565b9050610329858285610513565b6103348585856105a8565b60019150509392505050565b60006012905090565b600560009054906101000a900473ffffffffffffffffffffffffffffffffffffffff1681565b60008060008373ffffffffffffffffffffffffffffffffffffffff1673ffffffffffffffffffffffffffffffffffffffff168152602001908152602001600020549050919050565b60065481565b6060600480546103cc90610dd3565b80601f01602080910402602001604051908101604052809291908181526020018280546103f890610dd3565b80156104455780601f1061041a57610100808354040283529160200191610445565b820191906000526020600020905b81548152906001019060200180831161042857829003601f168201915b5050505050905090565b60008061045a6104f9565b90506104678185856105a8565b600191505092915050565b6000600160008473ffffffffffffffffffffffffffffffffffffffff1673ffffffffffffffffffffffffffffffffffffffff16815260200190815260200160002060008373ffffffffffffffffffffffffffffffffffffffff1673ffffffffffffffffffffffffffffffffffffffff16815260200190815260200160002054905092915050565b600033905090565b61050e838383600161069c565b505050565b600061051f8484610472565b90507fffffffffffffffffffffffffffffffffffffffffffffffffffffffffffffffff8110156105a25781811015610592578281836040517ffb8f41b200000000000000000000000000000000000000000000000000000000815260040161058993929190610e04565b60405180910390fd5b6105a18484848403600061069c565b5b50505050565b600073ffffffffffffffffffffffffffffffffffffffff168373ffffffffffffffffffffffffffffffffffffffff160361061a5760006040517f96c6fd1e0000000000000000000000000000000000000000000000000000000081526004016106119190610d1c565b60405180910390fd5b600073ffffffffffffffffffffffffffffffffffffffff168273ffffffffffffffffffffffffffffffffffffffff160361068c5760006040517fec442f050000000000000000000000000000000000000000000000000000000081526004016106839190610d1c565b60405180910390fd5b610697838383610873565b505050565b600073ffffffffffffffffffffffffffffffffffffffff168473ffffffffffffffffffffffffffffffffffffffff160361070e5760006040517fe602df050000000000000000000000000000000000000000000000000000000081526004016107059190610d1c565b60405180910390fd5b600073ffffffffffffffffffffffffffffffffffffffff168373ffffffffffffffffffffffffffffffffffffffff16036107805760006040517f94280d620000000000000000000000000000000000000000000000000000000081526004016107779190610d1c565b60405180910390fd5b81600160008673ffffffffffffffffffffffffffffffffffffffff1673ffffffffffffffffffffffffffffffffffffffff16815260200190815260200160002060008573ffffffffffffffffffffffffffffffffffffffff1673ffffffffffffffffffffffffffffffffffffffff16815260200190815260200160002081905550801561086d578273ffffffffffffffffffffffffffffffffffffffff168473ffffffffffffffffffffffffffffffffffffffff167f8c5be1e5ebec7d5bd14f71427d1e84f3dd0314c0f7b2291e5b200ac8c7c3b925846040516108649190610c68565b60405180910390a35b50505050565b600073ffffffffffffffffffffffffffffffffffffffff168373ffffffffffffffffffffffffffffffffffffffff16036108c55780600260008282546108b99190610e6a565b92505081905550610998565b60008060008573ffffffffffffffffffffffffffffffffffffffff1673ffffffffffffffffffffffffffffffffffffffff16815260200190815260200160002054905081811015610951578381836040517fe450d38c00000000000000000000000000000000000000000000000000000000815260040161094893929190610e04565b60405180910390fd5b8181036000808673ffffffffffffffffffffffffffffffffffffffff1673ffffffffffffffffffffffffffffffffffffffff16815260200190815260200160002081905550505b600073ffffffffffffffffffffffffffffffffffffffff168273ffffffffffffffffffffffffffffffffffffffff16036109e15780600260008282540392505081905550610a2e565b806000808473ffffffffffffffffffffffffffffffffffffffff1673ffffffffffffffffffffffffffffffffffffffff168152602001908152602001600020600082825401925050819055505b8173ffffffffffffffffffffffffffffffffffffffff168373ffffffffffffffffffffffffffffffffffffffff167fddf252ad1be2c89b69c2b068fc378daa952ba7f163c4a11628f55a4df523b3ef83604051610a8b9190610c68565b60405180910390a3505050565b600081519050919050565b600082825260208201905092915050565b60005b83811015610ad2578082015181840152602081019050610ab7565b60008484015250505050565b6000601f19601f8301169050919050565b6000610afa82610a98565b610b048185610aa3565b9350610b14818560208601610ab4565b610b1d81610ade565b840191505092915050565b60006020820190508181036000830152610b428184610aef565b905092915050565b600080fd5b600073ffffffffffffffffffffffffffffffffffffffff82169050919050565b6000610b7a82610b4f565b9050919050565b610b8a81610b6f565b8114610b9557600080fd5b50565b600081359050610ba781610b81565b92915050565b6000819050919050565b610bc081610bad565b8114610bcb57600080fd5b50565b600081359050610bdd81610bb7565b92915050565b60008060408385031215610bfa57610bf9610b4a565b5b6000610c0885828601610b98565b9250506020610c1985828601610bce565b9150509250929050565b60008115159050919050565b610c3881610c23565b82525050565b6000602082019050610c536000830184610c2f565b92915050565b610c6281610bad565b82525050565b6000602082019050610c7d6000830184610c59565b92915050565b600080600060608486031215610c9c57610c9b610b4a565b5b6000610caa86828701610b98565b9350506020610cbb86828701610b98565b9250506040610ccc86828701610bce565b9150509250925092565b600060ff82169050919050565b610cec81610cd6565b82525050565b6000602082019050610d076000830184610ce3565b92915050565b610d1681610b6f565b82525050565b6000602082019050610d316000830184610d0d565b92915050565b600060208284031215610d4d57610d4c610b4a565b5b6000610d5b84828501610b98565b91505092915050565b60008060408385031215610d7b57610d7a610b4a565b5b6000610d8985828601610b98565b9250506020610d9a85828601610b98565b9150509250929050565b7f4e487b7100000000000000000000000000000000000000000000000000000000600052602260045260246000fd5b60006002820490506001821680610deb57607f821691505b602082108103610dfe57610dfd610da4565b5b50919050565b6000606082019050610e196000830186610d0d565b610e266020830185610c59565b610e336040830184610c59565b949350505050565b7f4e487b7100000000000000000000000000000000000000000000000000000000600052601160045260246000fd5b6000610e7582610bad565b9150610e8083610bad565b9250828201905080821115610e9857610e97610e3b565b5b9291505056fea2646970667358221220650c26461918c725cbb2a79d0b3388459b971460a924feee91589e6e2231bd4564736f6c634300081c0033a2646970667358221220a6653d1f3cdc8e55381e19da36fc009410d59d89697ad69292ed1c62e37d966364736f6c634300081c0033",
  "linkReferences": {},
  "deployedLinkReferences": {}
}